:100000000C9434000C9446000C9446000C9446006A
:100010000C9446000C9446000C9446000C94460048
:100020000C9446000C9446000C9446000C94460038
:100030000C9446000C9446000C9446000C94460028
:100040000C945B000C9446000C9448000C94460001
:100050000C9446000C9446000C9446000C94460008
:100060000C9446000C94460011241FBECFEFD8E03C
:10007000DEBFCDBF21E0A0E0B1E001C01D92A830FD
:10008000B207E1F70E9495000C94D1000C94000097
:100090001F920F920FB60F9211248F938091C6007A
:1000A0008093030181E0809302018F910F900FBE36
:1000B0000F901F9018951F920F920FB60F92112458
:1000C0002F934F935F936F937F938F939F93409161
:1000D0000401509105016091060170910701809122
:1000E000000190910101883E23E0920730F04F5FBC
:1000F0005F4F6F4F7F4F885E934040930401509352
:1001000005016093060170930701909301018093AC
:1001100000019F918F917F916F915F914F912F91EE
:100120000F900FBE0F901F90189514BC83E085BDF3
:1001300081E080936E0078948FEC90E09093C500FE
:100140008093C4008091C00082608093C00088E9E1
:100150008093C10086E08093C20078948FEF84B9C9
:10016000F89440910401509105016091060170914D
:1001700007017894F8948091040190910501A09171
:100180000601B09107017894841B950BA60BB70B61
:10019000813D9740A105B10568F385B1809585B98A
:0601A000DFCFF894FFCF51
:00000001FF
