:100000000C9434000C9451000C9451000C94510049
:100010000C9451000C9451000C9451000C9451001C
:100020000C9451000C9451000C9451000C94230238
:100030000C9451000C9451000C9451000C945100FC
:100040000C94AE020C9451000C9474020C94350282
:100050000C9451000C9451000C9451000C945100DC
:100060000C9451000C94510011241FBECFEFD8E026
:10007000DEBFCDBF11E0A0E0B1E0EEE6F4E102C0EA
:1000800005900D92AC3AB107D9F722E0ACEAB1E0A5
:1000900001C01D92AD36B207E1F70E94F3020C9445
:1000A000350A0C9400005B9A10924D0210924C029B
:1000B0000895806480937C0080917A00806C8093A6
:1000C0007A0080917A0084FFFCCF80917800909133
:1000D0007900089580913E0290913F02892B29F08A
:1000E0002A9810923F0210923E02089580913802A1
:1000F00090913902892B21F0109239021092380226
:1001000008951092D3011092D2011092CE01109254
:10011000CF011092D0011092D1011092CD01109216
:10012000CC011092C8011092C9011092CA0110921C
:10013000CB010895009721F410926F00299808953B
:10014000880F991F9C0150E040E060E472E48FE06A
:1001500090E00E94A107215031093093890020933B
:10016000880082E080936F0078940895682F8091D2
:10017000660290916702892BA9F08091C601909147
:10018000C701019769F470E090E080E00E941209D5
:1001900020E030E040E251E40E9471080E94E30850
:1001A000611107C08091B0008F778093B0002B98C9
:1001B00008958091B00080688093B0006093B30090
:1001C00008954091B2015091B3012091C401309142
:1001D000C5014217530771F49091C00095FF0AC002
:1001E000F8948093C6008091C00080648093C00022
:1001F000789408952091B2013091B301E091B20159
:10020000F091B301EC54FE4F8083F8942F5F2F7070
:1002100030E03093B3012093B2018091C10080623D
:100220008093C100E5CF80E10E94E1001092450279
:10023000109244020895F8946091AE017091AF015C
:100240008091B0019091B101789408950F931F931C
:10025000CF93DF9310922B0210922A0221E030E01C
:1002600030932D0220932C029093D5018093D401DA
:100270008B01C6EDD1E0DA0142E052E030E020E04F
:10028000281739077CF00E941B016093FE017093D0
:10029000FF018093000290930102DF91CF911F91A3
:1002A0000F910895F801619171918F01699379938C
:1002B0006D917D91FA0161937193AF012F5F3F4F73
:1002C000DFCF48E451E060E571E084E090E00E9417
:1002D000260181E090E008958F929F92AF92BF92A5
:1002E000EF92FF920F931F93CF93DF9380912C0295
:1002F00090912D02019709F059C0C0912A02D09126
:100300002B027E01EE0CFF1CF701EE5FFD4F00811A
:1003100011810E941B018090FE019090FF01A0902E
:100320000002B0900102AB01BC01481959096A09E9
:100330007B09F701EA52FE4F80819181B0E0A0E095
:1003400084179507A607B70768F0C801DF91CF911A
:100350001F910F91FF90EF90BF90AF909F908F9063
:100360000C949A002196D0932B02C0932A020E94EB
:100370001B016093FE017093FF0180930002909334
:1003800001028091D4019091D501C817D90739F0A5
:10039000CC0FDD1FCE5FDD4F88819981D7CF1092C2
:1003A0002D0210922C0280E090E0D0CF0091CC0181
:1003B0001091CD017801EE0CFF1CF701EC59FE4FB6
:1003C000D081C1810E941B018090C8019090C90119
:1003D000A090CA01B090CB01AB01BC0148195909EA
:1003E0006A097B09F701E45AFE4F80819181B0E0F0
:1003F000A0E084179507A607B70718F08D2F9C2F4C
:10040000A5CFC801019664E070E00E940D0AEC01DE
:100410009093CD018093CC010E941B016093C80191
:100420007093C9018093CA019093CB01CC0FDD1F5B
:10043000CC59DE4FB1CF81E090E09093C70180931B
:10044000C6010C941B011F920F920FB60F9211243C
:100450008F939F9383B192E0892783B99F918F9166
:100460000F900FBE0F901F9018951F920F920FB60E
:100470000F9211242F933F938F939F93EF93FF93AA
:10048000E091C401F091C501EC54FE4F20818091B0
:10049000C4019091C50101968F7099279093C50171
:1004A0008093C4012093C6008091C0008064809333
:1004B000C0002091B2013091B3018091C4019091AC
:1004C000C5012817390729F48091C1008F7D8093D9
:1004D000C100FF91EF919F918F913F912F910F90CC
:1004E0000FBE0F901F9018951F920F920FB60F928C
:1004F00011242F934F935F938F939F93EF93FF93C9
:100500008091C00082FD27C02091C60080914E02DC
:1005100090914F0201968F709927409160025091FF
:1005200061024817590759F0E0914E02F0914F02CD
:10053000E05BFD4F208390934F0280934E02FF912A
:10054000EF919F918F915F914F912F910F900FBEDF
:100550000F901F9018958091C600F1CF1F920F92B7
:100560000FB60F9211242F933F934F935F936F9386
:100570008F939F93AF93BF938091AE019091AF0102
:10058000A091B001B091B1014091AC015091AD0189
:100590009A0120583E4F283E63E03607E8F4409623
:1005A000A11DB11D8093AE019093AF01A093B00146
:1005B000B093B1013093AD012093AC01BF91AF91E5
:1005C0009F918F916F915F914F913F912F910F90DC
:1005D0000FBE0F901F9018954196A11DB11D9A0155
:1005E00028563240DFCFCF93DF93CDB7DEB72897C1
:1005F0000FB6F894DEBF0FBECDBF14BC83E085BD3F
:1006000091E090936E0078948093C0001092C500A2
:100610008CE08093C40086E08093C2008091C1008A
:1006200088698093C1008091C1008F7D8093C10053
:10063000789480E880936600219A1092800089E087
:100640008093810026982E9A0E94810025982D9AE9
:10065000239A8091B00083608093B0008091B100B4
:1006600081608093B1003B98439A27982F9A229AF1
:1006700087B1897F87B93898409A539A5B9A80915D
:10068000B00083608093B0008091B100816080935E
:10069000B10010926C0201E010E0F0E12F2E312C3D
:1006A000A5E54A2E5524539466246A94712CCC24D3
:1006B000CA94DD24D39480916C02811115C00E94EC
:1006C0006C011D99FCCF0E941B016093680270931E
:1006D000690280936A0290936B02CB010E94960795
:1006E000E2E08E2E80926C0280916C02813009F0E3
:1006F00064C30E9481001093670200936602809198
:100700002C0290912D02019709F02DC2A0902A028F
:10071000B0902B02BC82AB827501EE0CFF1CF7017E
:10072000EE5FFD4FB080B98281808A820E941B01FA
:100730002091FE013091FF01409100025091010291
:100740004B015C01821A930AA40AB50AF701EA5226
:10075000FE4F80819181B0E0A0E069817A818815A7
:100760009905AA05BB0518F5EB80FC802FEFE21A6E
:10077000F20AF0922B02E0922A020E941B0160937F
:10078000FE017093FF01809300029093010280911B
:10079000D4019091D501E816F90609F4DDC197015D
:1007A000220F331F2E5F3D4FD9016D917C91CB01FC
:1007B0000E949A00109265021092640280914E028B
:1007C00090914F022091600230916102821B930B45
:1007D0008F709927892BC1F01093650200936402F2
:1007E000E0916002F0916102E05BFD4F2081809119
:1007F0006002909161028F5F8F7090E09093610230
:1008000080936002209363020E9491078A309105D1
:100810000CF014C28091380290913902019751F086
:1008200010933902009338020E941B017093370223
:10083000609336028091380290913902892B41F001
:100840001E9906C00E946101892B11F00E9476005A
:1008500080913E0290913F02892B41F01F9906C082
:100860000E946101892B11F00E946A00809144026C
:1008700090914502892B09F459C081E090E00E94D3
:1008800059007C0182E090E00E9459009C838B8398
:100890008091340290913502843F914008F05CC20F
:1008A0008091320290913302853F914008F445C215
:1008B0008B809C8025EF821621E0920608F44CC2C2
:1008C0000E941B01AB01BC0180912E0290912F026E
:1008D000A0913002B09131022BE9822E99249A9492
:1008E000A92CB92C881A990AAA0ABB0AD501C401F5
:1008F000840F951FA61FB71F83389340A105B1052C
:1009000008F02AC2F0923302E09232028B809C807F
:10091000909235028092340248E451E060E571E043
:1009200084E090E00E9426010E94130180914C0215
:1009300090914D02892B89F0E0904A02F0904B0291
:1009400090E080E00E945900E816F90631F40E9418
:100950006101892B11F00E9453008091630248E4E9
:1009600051E060E571E0813241F0803251F40E9443
:100970001B0248E351E060E471E084E090E00E94F3
:1009800026018091380290913902892B29F10E9429
:100990001B01DC01CB012091360230913702A90105
:1009A000330F660B770B4C015D01841A950AA60A7A
:1009B000B70A29E8821623E19206A104B10460F087
:1009C0000E941B0248E351E060E471E084E090E0A3
:1009D0000E9426010E94760080913E0290913F0283
:1009E000892BA1F00E941B0120913A0230913B0219
:1009F00040913C0250913D02621B730B840B950B9E
:100A0000693873418105910508F02A9A8091440262
:100A100090914502892BF9F00E941B012091400220
:100A2000309141024091420250914302621B730B8C
:100A3000840B950B613177428105910560F00E942E
:100A40001B0248E351E060E471E084E090E00E9422
:100A500026010E94130180914C0290914D02892B36
:100A600009F443C0E0904A02F0904B0290E080E02D
:100A70000E945900E81AF90AF7FE03C0F194E194C4
:100A8000F1089701359527952F3F310519F014F09E
:100A90002FEF30E0B301621B730B8091B000611542
:100AA000710509F064C18F7C8093B0000E941B0126
:100AB00020914602309147024091480250914902EC
:100AC000621B730B840B950B613177428105910595
:100AD00060F00E941B0248E351E060E471E084E0B2
:100AE00090E00E9426010E9453001D9B46C180E0B9
:100AF0000E94B600339B44C10E941B0120916802F2
:100B00003091690240916A0250916B02621B730B33
:100B1000840B950B613C744D8140910508F4EFCD39
:100B200080E00E94B6000E9476000E946A000E9447
:100B300013010E94530048E351E060E471E084E057
:100B400090E00E942601809162020E94B600339BD1
:100B500079C10E946C01F7CF10922D0210922C02E5
:100B600070E060E024CE8090D2019090D3019C820E
:100B70008B827401EE0CFF1CF701E457FE4F90804E
:100B80009982A180AA820E941B012091CE013091FE
:100B9000CF014091D0015091D1014B015C01821AEB
:100BA000930AA40AB50AF701E459FE4F80819181A6
:100BB000B0E0A0E069817A8188159905AA05BB0596
:100BC000E8F48B819C810196B1010E940D0A7C01A1
:100BD0009093D3018093D2010E941B016093CE01B8
:100BE0007093CF018093D0019093D1019701220F90
:100BF000331F24573E4FD9016D917C91809138026B
:100C000090913902019709F0D2CD6115710509F46F
:100C1000CECD072E000C880B990B0E94140922E5FB
:100C200038EB4EE15FE30E94A00920E030E048ECA1
:100C300052E40E9405080E94E308B9CD8431910571
:100C4000F4F480913E0290913F02019709F4F2CDB5
:100C500010933F0200933E020E941B0160933A02F0
:100C600070933B0280933C0290933D0240E051E040
:100C70006EE071E087E090E00E942601DBCD8E31CE
:100C8000910524F480E20E94E100D4CD88329105E0
:100C9000CCF48091440290914502019709F4CACDA9
:100CA00081E10E94E1000E941B0160934002709369
:100CB00041028093420290934302109345020093B5
:100CC0004402B8CDC2970CF0B5CD80914C02909102
:100CD0004D02019709F4AECD5B980E941B01609311
:100CE0004602709347028093480290934902109302
:100CF0004D0200934C0290E080E00E9459009C015C
:100D0000255531402535314028F0D0924B02C09214
:100D10004A0290CD81709927880F991F0197849D71
:100D20009001859D300D949D300D112421503E4F32
:100D300030934B0220934A027DCD25EFE21621E04D
:100D4000F20650F00E941B0160932E0270932F0256
:100D50008093300290933102F0923302E09232029B
:100D60008B809C809092350280923402DFCD80622D
:100D70008093B0006093B40099CE80916202B8CEA7
:100D800080E00E94B6000E9476000E946A000E94E5
:100D900013010E94530080E00E94B6001092670287
:100DA0001092660248E451E060E571E084E090E072
:100DB0000E942601E2E0E0936C0280916C02823096
:100DC00009F079CC0E94810080E40E94E10048E4AF
:100DD00051E060E571E084E090E00E9426010E940D
:100DE0006C0180914E0290914F02209160023091EF
:100DF0006102821B930B8F709927892B81F3E091FD
:100E00006002F0916102E05BFD4F20818091600201
:100E1000909161028F5F8F7090E090936102809358
:100E200060022234C9F44CE151E06AE271E087E0EB
:100E300090E00E9426018FEF8093620281E0809310
:100E40006C0239CC80E00E94B600109267021092CA
:100E5000660210926C02B1CF213451F448E351E0A4
:100E600060E571E084E090E00E94260188ECE4CF28
:100E7000203409F0B4CF48E351E060E471E084E04D
:100E800090E00E94260186E9D7CF8F929F92AF9281
:100E9000BF92CF92DF92EF92FF92CF93DF93EC015C
:100EA000688179818A819B81611571058105910530
:100EB00021F464E279ED8BE597E02DE133EF41E039
:100EC00050E00E94A10749015A019B01AC01A7EA29
:100ED000B1E40E94C0076B017C01ACEEB4EFA50148
:100EE00094010E94CE07DC01CB018C0D9D1DAE1D2F
:100EF000BF1DB7FF03C00197A109B048888399833C
:100F0000AA83BB839F77DF91CF91FF90EF90DF9013
:100F1000CF90BF90AF909F908F9008950E9445070B
:100F2000089588E591E00E9445070895B0E0A0E0AB
:100F30008093580190935901A0935A01B0935B019B
:100F40000895052E97FB1EF400940E94B80757FDE4
:100F500007D00E94D30707FC03D04EF40C94B807C7
:100F600050954095309521953F4F4F4F5F4F0895D5
:100F700090958095709561957F4F8F4F9F4F089505
:100F80000E94F507A59F900DB49F900DA49F800D22
:100F9000911D11240895B7FF0C94C0070E94C0074B
:100FA000821B930B0895A1E21A2EAA1BBB1BFD0105
:100FB0000DC0AA1FBB1FEE1FFF1FA217B307E40738
:100FC000F50720F0A21BB30BE40BF50B661F771F90
:100FD000881F991F1A9469F7609570958095909570
:100FE0009B01AC01BD01CF010895A29FB001B39F49
:100FF000C001A39F700D811D1124911DB29F700D22
:10100000811D1124911D08955058BB27AA270E94C5
:101010001C080C9466090E94580938F00E945F0968
:1010200020F039F49F3F19F426F40C9455090EF47E
:10103000E095E7FB0C944F09E92F0E94770958F3DC
:10104000BA17620773078407950720F079F4A6F5AD
:101050000C9499090EF4E0950B2EBA2FA02D0B01DC
:10106000B90190010C01CA01A0011124FF27591BED
:1010700099F0593F50F4503E68F11A16F040A22FF3
:10108000232F342F4427585FF3CF46953795279564
:10109000A795F0405395C9F77EF41F16BA0B620B63
:1010A000730B840BBAF09150A1F0FF0FBB1F661FAA
:1010B000771F881FC2F70EC0BA0F621F731F841FED
:1010C00048F4879577956795B795F7959E3F08F013
:1010D000B0CF9395880F08F09927EE0F97958795D5
:1010E00008950E9485080C9466090E945F0958F0D3
:1010F0000E94580940F029F45F3F29F00C944F09F1
:1011000051110C949A090C9455090E94770968F3BF
:101110009923B1F3552391F3951B550BBB27AA27B0
:1011200062177307840738F09F5F5F4F220F331FEA
:10113000441FAA1FA9F335D00E2E3AF0E0E832D0B2
:1011400091505040E695001CCAF72BD0FE2F29D0B5
:10115000660F771F881FBB1F261737074807AB0787
:10116000B0E809F0BB0B802DBF01FF2793585F4FFC
:101170003AF09E3F510578F00C944F090C949A096F
:101180005F3FE4F3983ED4F3869577956795B795DE
:10119000F7959F5FC9F7880F911D9695879597F9E9
:1011A0000895E1E0660F771F881FBB1F6217730762
:1011B0008407BA0720F0621B730B840BBA0BEE1F77
:1011C00088F7E09508950E947F0988F09F5798F06E
:1011D000B92F9927B751B0F0E1F0660F771F881F3C
:1011E000991F1AF0BA95C9F714C0B13091F00E9456
:1011F0009909B1E008950C949909672F782F8827F1
:10120000B85F39F0B93FCCF3869577956795B3957C
:10121000D9F73EF490958095709561957F4F8F4FEB
:101220009F4F0895E89409C097FB3EF490958095F0
:10123000709561957F4F8F4F9F4F9923A9F0F92F9C
:1012400096E9BB279395F695879577956795B7951A
:10125000F111F8CFFAF4BB0F11F460FF1BC06F5F00
:101260007F4F8F4F9F4F16C0882311F096E911C012
:10127000772321F09EE8872F762F05C0662371F033
:1012800096E8862F70E060E02AF09A95660F771F47
:10129000881FDAF7880F9695879597F9089597F93B
:1012A0009F6780E870E060E008959FEF80EC08950C
:1012B00000240A9416161706180609060895002435
:1012C0000A9412161306140605060895092E0394AF
:1012D000000C11F4882352F0BB0F40F4BF2B11F423
:1012E00060FF04C06F5F7F4F8F4F9F4F089557FD82
:1012F0009058440F551F59F05F3F71F04795880F84
:1013000097FB991F61F09F3F79F08795089512161A
:1013100013061406551FF2CF4695F1DF08C01616C6
:1013200017061806991FF1CF869571056105089477
:101330000895E894BB2766277727CB0197F908958E
:101340000E94B3090C9466090E94580938F00E9463
:101350005F0920F0952311F00C944F090C94550966
:1013600011240C949A090E94770970F3959FC1F398
:10137000950F50E0551F629FF001729FBB27F00D43
:10138000B11D639FAA27F00DB11DAA1F649F662798
:10139000B00DA11D661F829F2227B00DA11D621FE7
:1013A000739FB00DA11D621F839FA00D611D221FA1
:1013B000749F3327A00D611D231F849F600D211D85
:1013C000822F762F6A2F11249F5750409AF0F1F008
:1013D00088234AF0EE0FFF1FBB1F661F771F881F71
:1013E00091505040A9F79E3F510580F00C944F0951
:1013F0000C949A095F3FE4F3983ED4F38695779571
:101400006795B795F795E7959F5FC1F7FE2B880F16
:10141000911D9695879597F9089597FB072E16F4D9
:10142000009407D077FD09D00E94210A07FC05D05F
:101430003EF4909581959F4F0895709561957F4FEB
:101440000895AA1BBB1B51E107C0AA1FBB1FA6170B
:10145000B70710F0A61BB70B881F991F5A95A9F75D
:0E14600080959095BC01CD010895F894FFCFC2
:10146E00DC03BA02DC03BA02DC03BA020000FA00A3
:10147E00FA00FA00FA00FA00FA00FA002601EE016C
:10148E00B8010B020000EE010000900190012C014A
:10149E006400C80058025802EE01B8015D01000058
:1014AE0064006400C800640010034A0116040000C2
:1014BE0064006400C800640001000000F401F4013F
:1014CE00F401F4015D01000006010000900190019D
:1014DE009001900190019001900190019001900176
:1014EE00900190019001900190019001060106017A
:1014FE0088018801B801B801880100005D015D0115
:0C150E004A014A012601260106010000E6
:00000001FF
